{"abi":[{"type":"constructor","inputs":[{"name":"_burnPrice","type":"uint256","internalType":"uint256"},{"name":"_commissionPercent","type":"uint256","internalType":"uint256"}],"stateMutability":"nonpayable"},{"type":"function","name":"burnNFT","inputs":[{"name":"nftContract","type":"address","internalType":"address"},{"name":"tokenId","type":"uint256","internalType":"uint256"}],"outputs":[],"stateMutability":"payable"},{"type":"function","name":"burnPrice","inputs":[],"outputs":[{"name":"","type":"uint256","internalType":"uint256"}],"stateMutability":"view"},{"type":"function","name":"burnsSinceLastJackpot","inputs":[],"outputs":[{"name":"","type":"uint256","internalType":"uint256"}],"stateMutability":"view"},{"type":"function","name":"chanceDivisor","inputs":[],"outputs":[{"name":"","type":"uint256","internalType":"uint256"}],"stateMutability":"view"},{"type":"function","name":"commissionPercent","inputs":[],"outputs":[{"name":"","type":"uint256","internalType":"uint256"}],"stateMutability":"view"},{"type":"function","name":"jackpot","inputs":[],"outputs":[{"name":"","type":"uint256","internalType":"uint256"}],"stateMutability":"view"},{"type":"function","name":"owner","inputs":[],"outputs":[{"name":"","type":"address","internalType":"address"}],"stateMutability":"view"},{"type":"function","name":"userBurns","inputs":[{"name":"","type":"address","internalType":"address"}],"outputs":[{"name":"","type":"uint256","internalType":"uint256"}],"stateMutability":"view"},{"type":"function","name":"withdrawCommission","inputs":[],"outputs":[],"stateMutability":"nonpayable"},{"type":"event","name":"Burn","inputs":[{"name":"user","type":"address","indexed":true,"internalType":"address"},{"name":"nftContract","type":"address","indexed":true,"internalType":"address"},{"name":"tokenId","type":"uint256","indexed":false,"internalType":"uint256"},{"name":"wonJackpot","type":"bool","indexed":false,"internalType":"bool"}],"anonymous":false},{"type":"event","name":"CommissionWithdrawn","inputs":[{"name":"owner","type":"address","indexed":true,"internalType":"address"},{"name":"amount","type":"uint256","indexed":false,"internalType":"uint256"}],"anonymous":false},{"type":"event","name":"JackpotWon","inputs":[{"name":"winner","type":"address","indexed":true,"internalType":"address"},{"name":"amount","type":"uint256","indexed":false,"internalType":"uint256"}],"anonymous":false}],"bytecode":{"object":"0x60806040526104e2600555348015610015575f5ffd5b50604051610c83380380610c83833981810160405281019061003791906100c2565b335f5f6101000a81548173ffffffffffffffffffffffffffffffffffffffff021916908373ffffffffffffffffffffffffffffffffffffffff16021790555081600281905550806003819055505050610100565b5f5ffd5b5f819050919050565b6100a18161008f565b81146100ab575f5ffd5b50565b5f815190506100bc81610098565b92915050565b5f5f604083850312156100d8576100d761008b565b5b5f6100e5858286016100ae565b92505060206100f6858286016100ae565b9150509250929050565b610b768061010d5f395ff3fe608060405260043610610085575f3560e01c80637e7f726e116100585780637e7f726e1461010f5780638da5cb5b14610139578063a8b3a2f214610163578063bde6a5a91461018d578063ce653d5f146101b757610085565b80633e25e8371461008957806347fcf0181461009f5780636b31ee01146100bb57806377d3550b146100e5575b5f5ffd5b348015610094575f5ffd5b5061009d6101f3565b005b6100b960048036038101906100b4919061070c565b610367565b005b3480156100c6575f5ffd5b506100cf6105d9565b6040516100dc9190610759565b60405180910390f35b3480156100f0575f5ffd5b506100f96105df565b6040516101069190610759565b60405180910390f35b34801561011a575f5ffd5b506101236105e5565b6040516101309190610759565b60405180910390f35b348015610144575f5ffd5b5061014d6105eb565b60405161015a9190610781565b60405180910390f35b34801561016e575f5ffd5b5061017761060f565b6040516101849190610759565b60405180910390f35b348015610198575f5ffd5b506101a1610615565b6040516101ae9190610759565b60405180910390f35b3480156101c2575f5ffd5b506101dd60048036038101906101d8919061079a565b61061b565b6040516101ea9190610759565b60405180910390f35b5f5f9054906101000a900473ffffffffffffffffffffffffffffffffffffffff1673ffffffffffffffffffffffffffffffffffffffff163373ffffffffffffffffffffffffffffffffffffffff1614610281576040517f08c379a00000000000000000000000000000000000000000000000000000000081526004016102789061081f565b60405180910390fd5b5f60015447610290919061086a565b90505f5f9054906101000a900473ffffffffffffffffffffffffffffffffffffffff1673ffffffffffffffffffffffffffffffffffffffff166108fc8290811502906040515f60405180830381858888f193505050501580156102f5573d5f5f3e3d5ffd5b505f5f9054906101000a900473ffffffffffffffffffffffffffffffffffffffff1673ffffffffffffffffffffffffffffffffffffffff167fd244b5a3b2e3977ecffe1a5e5ab7661aadfecbae24be711b7a72bb42bd1b2db08260405161035c9190610759565b60405180910390a250565b60025434146103ab576040517f08c379a00000000000000000000000000000000000000000000000000000000081526004016103a2906108e7565b60405180910390fd5b8173ffffffffffffffffffffffffffffffffffffffff166342966c68826040518263ffffffff1660e01b81526004016103e49190610759565b5f604051808303815f87803b1580156103fb575f5ffd5b505af115801561040d573d5f5f3e3d5ffd5b505050505f6064600354346104229190610905565b61042c9190610973565b9050803461043a919061086a565b60015f82825461044a91906109a3565b9250508190555060065f3373ffffffffffffffffffffffffffffffffffffffff1673ffffffffffffffffffffffffffffffffffffffff1681526020019081526020015f205f81548092919061049e906109d6565b919050555060045f8154809291906104b5906109d6565b91905055505f6104c3610630565b90508373ffffffffffffffffffffffffffffffffffffffff163373ffffffffffffffffffffffffffffffffffffffff167f51f8a0b4b984f3bb0822d30fd71ef675b005a692fb48c0a4246d0bb77d9d7e6c8584604051610524929190610a37565b60405180910390a380156105d3575f60015490505f6001819055503373ffffffffffffffffffffffffffffffffffffffff166108fc8290811502906040515f60405180830381858888f19350505050158015610582573d5f5f3e3d5ffd5b503373ffffffffffffffffffffffffffffffffffffffff167fbf737c87eff4ef74213cb228c9e25ca0c4519947f5fcc4a41b221ba93d76a425826040516105c99190610759565b60405180910390a2505b50505050565b60015481565b60035481565b60045481565b5f5f9054906101000a900473ffffffffffffffffffffffffffffffffffffffff1681565b60055481565b60025481565b6006602052805f5260405f205f915090505481565b5f5f60055442443360045460405160200161064e9493929190610ac3565b604051602081830303815290604052805190602001205f1c6106709190610b10565b90505f811491505090565b5f5ffd5b5f73ffffffffffffffffffffffffffffffffffffffff82169050919050565b5f6106a88261067f565b9050919050565b6106b88161069e565b81146106c2575f5ffd5b50565b5f813590506106d3816106af565b92915050565b5f819050919050565b6106eb816106d9565b81146106f5575f5ffd5b50565b5f81359050610706816106e2565b92915050565b5f5f604083850312156107225761072161067b565b5b5f61072f858286016106c5565b9250506020610740858286016106f8565b9150509250929050565b610753816106d9565b82525050565b5f60208201905061076c5f83018461074a565b92915050565b61077b8161069e565b82525050565b5f6020820190506107945f830184610772565b92915050565b5f602082840312156107af576107ae61067b565b5b5f6107bc848285016106c5565b91505092915050565b5f82825260208201905092915050565b7f4e6f7420617574686f72697a65640000000000000000000000000000000000005f82015250565b5f610809600e836107c5565b9150610814826107d5565b602082019050919050565b5f6020820190508181035f830152610836816107fd565b9050919050565b7f4e487b71000000000000000000000000000000000000000000000000000000005f52601160045260245ffd5b5f610874826106d9565b915061087f836106d9565b92508282039050818111156108975761089661083d565b5b92915050565b7f496e636f7272656374206275726e2070726963650000000000000000000000005f82015250565b5f6108d16014836107c5565b91506108dc8261089d565b602082019050919050565b5f6020820190508181035f8301526108fe816108c5565b9050919050565b5f61090f826106d9565b915061091a836106d9565b9250828202610928816106d9565b9150828204841483151761093f5761093e61083d565b5b5092915050565b7f4e487b71000000000000000000000000000000000000000000000000000000005f52601260045260245ffd5b5f61097d826106d9565b9150610988836106d9565b92508261099857610997610946565b5b828204905092915050565b5f6109ad826106d9565b91506109b8836106d9565b92508282019050808211156109d0576109cf61083d565b5b92915050565b5f6109e0826106d9565b91507fffffffffffffffffffffffffffffffffffffffffffffffffffffffffffffffff8203610a1257610a1161083d565b5b600182019050919050565b5f8115159050919050565b610a3181610a1d565b82525050565b5f604082019050610a4a5f83018561074a565b610a576020830184610a28565b9392505050565b5f819050919050565b610a78610a73826106d9565b610a5e565b82525050565b5f8160601b9050919050565b5f610a9482610a7e565b9050919050565b5f610aa582610a8a565b9050919050565b610abd610ab88261069e565b610a9b565b82525050565b5f610ace8287610a67565b602082019150610ade8286610a67565b602082019150610aee8285610aac565b601482019150610afe8284610a67565b60208201915081905095945050505050565b5f610b1a826106d9565b9150610b25836106d9565b925082610b3557610b34610946565b5b82820690509291505056fea26469706673582212209d2a6d0f43fce0bfe5fa5c5c628bb6935cd5221f123d551634284a5cbded8c0864736f6c634300081c0033","linkReferences":{}},"methodIdentifiers":{"burnNFT(address,uint256)":"47fcf018","burnPrice()":"bde6a5a9","burnsSinceLastJackpot()":"7e7f726e","chanceDivisor()":"a8b3a2f2","commissionPercent()":"77d3550b","jackpot()":"6b31ee01","owner()":"8da5cb5b","userBurns(address)":"ce653d5f","withdrawCommission()":"3e25e837"},"id":35}